:020000041000EA
:1000000000B5324B212058609868022188439860DF
:10001000D860186158612E4B002199600221596106
:100020000121F02299502B49196001219960352056
:1000300000F044F80222904214D00621196600F024
:1000400034F8196E01211966002018661A6600F04E
:100050002CF8196E196E196E052000F02FF8012189
:100060000842F9D1002199601B49196000215960AB
:100070001A491B48016001219960EB211966A021F2
:10008000196600F012F800219960164914480160C1
:100090000121996001BC002800D000471248134993
:1000A000086003C880F30888084703B5996A0420EC
:1000B0000142FBD001200142F8D103BD02B5186610
:1000C0001866FFF7F2FF186E186E02BD00000240BE
:1000D000000000180000070000035F00212200005C
:1000E000F4000018222000A00001001008ED00E03C
:1000F00000000000000000000000000074B24E7A12
:1001000000200420F7010010C3010010C5010010F9
:10011000C1010010C1010010C1010010C101001097
:10012000C1010010C1010010C1010010C701001081
:10013000C1010010C1010010C9010010CB01001065
:10014000CD010010CD010010CD010010CD01001037
:10015000CD010010CD010010CD010010CD01001027
:10016000CD010010CD010010CD010010CD01001017
:10017000CD010010CD010010CD010010CD01001007
:10018000CD010010CD010010CD010010CD010010F7
:10019000CD010010CD010010CD010010CD010010E7
:1001A000CD010010CD010010CD010010CD010010D7
:1001B000CD010010CD010010CD010010CD010010C7
:1001C00000BE00BE00BE00BE00BE00BEEFF3058054
:1001D000103800BEF2EB88710C76001038760010F3
:1001E0003402001090A31AE700201F49086006C8D7
:1001F00081F3088810471D48006800282FD10DA4FE
:100200000ECC002902D000F012F8F9E71849194A7B
:10021000002000E001C19142FCD1174988471749ED
:1002200088471749884700BEFDE701C901C29A42C5
:10023000FBD3704738760010C0000020B01A0020B1
:1002400028900010000004200000042028900010D6
:10025000001004200010042000000000704709482E
:1002600002F05CFD0047000008ED00E0000000D057
:10027000B01A0020E81E0020691C00105503001071
:10028000331C00105756000006005250ABB36053A9
:100290000B6E001006005250861C0302166E0010F2
:1002A000060052505422A29D4C6E00100500525080
:1002B000DE65F46828900010F8B5C0460448054B88
:1002C00010B5834203D0044B002B00D0984710BDDB
:1002D000B01A0020B01A00200000000006480749AC
:1002E000091A8B10C90FC91810B5491003D0044B57
:1002F000002B00D0984710BDB01A0020B01A002083
:100300000000000010B5074C2378002B09D1FFF73F
:10031000D5FF054B002B02D0044800E000BF0123AD
:10032000237010BDB01B002000000000B061001061
:10033000054B10B5002B03D00449054800E000BF71
:10034000FFF7CCFF10BDC04600000000B41B00202A
:10035000B061001030B50C2089B003F01DFC0523FE
:1003600004000F25224A0293013B019300922721AA
:10037000142200F0BBF81F4B002120001E4A00F0A1
:1003800056F9200000F0A1F820000122002100F021
:10039000FDF820001121194A00F034F92000022252
:1003A000012100F0F3F829002000154A00F02AF995
:1003B00002222000110000F0E9F829002000114A73
:1003C00000F020F92000002100F02CF9200000228C
:1003D000032100F0DBF820000B4A132100F012F992
:1003E00020000C2103F0E0FB002009B030BDC04626
:1003F000401200201F0E0400000A1F1FB0610010F1
:10040000C2610010D2610010E261001007B5C3782C
:10041000054A194300231170017800938068013365
:1004200003F0FCFD07BDC0469C1C0020F7B59626D6
:10043000002704000425B60030000191390000F0C7
:1004400071FF019920002943FFF7E0FF30003900D8
:1004500000F068FF01992000A943FFF7D7FF3000A3
:10046000390000F05FFFF7BDF8B50F230F0005005E
:1004700014009F430B4B0C4E1F7009011743317042
:100480003900FFF7C3FF39002800FFF7CFFF3278AC
:10049000280014432100FFF7B9FF28002100FFF7CF
:1004A000C5FFF8BD9E1C00209D1C002010B5002239
:1004B000FFF7DAFF10BD04230C2110B54279134376
:1004C00043711143FFF7F2FF10BD082110B5C17051
:1004D000FFF79CFF10BD10B50121FFF7E7FF10BD2E
:1004E00010B50221FFF7E2FF10BD000070B5002536
:1004F0008370049B0400836042700170C570858026
:1005000085712149180003F063FD0598032100F06F
:10051000A7F80698032100F0A3F82A000598012106
:1005200000F0B4F82A000698012100F0AFF881230A
:100530000235DB00A3802000A5710321FFF7B6FF81
:1005400020000321FFF7B2FF20000321FFF7AEFFD9
:1005500029002000FFF7AAFF0421A37920001943F6
:10056000FFF7A4FF2021237920001943FFF79EFF06
:100570002000FFF7A0FF2000FFF7ADFF2000FFF7EE
:10058000AFFF200070BDC046A0860100F7B51A4F2E
:1005900001923B78BFF35B8F04000D00174EDB0721
:1005A0000BD4380003F046FD002806D063783800ED
:1005B000B3604033F36003F059FDA378191CAB42DC
:1005C00000D9291C62780198C9B2131C824201D952
:1005D0006B461B79DBB203290AD8890071582000C9
:1005E0005B18802149421943C9B2FFF75FFFF7BD8D
:1005F0000422034803F054FE001C00209011002048
:100600005162001073B50500140000910192561854
:10061000B44206D0217801222800FFF725FF0134DB
:10062000F6E773BD10B50122FFF71EFF10BD37B509
:10063000040000920193072900D908214023C90032
:1006400019432000C9B2FFF731FF00256B46012294
:10065000595D20000135FFF707FF082DF6D137BDA2
:10066000084B8200D218402310B51468C0006340C4
:10067000C02423408024640122431360024BC0182D
:10068000416010BD04C0014000400140094B8000A2
:10069000C0184B1E9941531E9A41C900036892002D
:1006A0001143594080230C225B0111401843016023
:1006B0007047C04604C00140024B18688007C00F55
:1006C0007047C04600C00640EFF3108072B6034A80
:1006D0001368002BFCD0BFF35F8F70472C0100D054
:1006E000BFF35F8F0022024B1A6080F310887047BF
:1006F0002C0100D00722CB08C35C012011408840A8
:100700001840431E9841C0B27047F8B505000C0070
:100710001700FFF7D9FF210006002800FFF7EAFFC6
:10072000002803D02100380001F018FB0721012325
:10073000E2080C40A340A95C30000B43AB54FFF728
:10074000CFFFF8BD0021044B044ABFF35F8F02C303
:100750009342FAD17047C046000100D0800100D01A
:10076000044A1078431CDBB2172B01D81370704772
:100770001023FBE7A0110020074B10309B6880007E
:10078000C150BFF35F8FBFF35F8F0021034B196030
:1007900082F310887047C04600ED00E0240100D0CD
:1007A000038810B5DA0A1C2A05D0B121044B054A8A
:1007B000054801F041FA5B051B150433C01810BD54
:1007C00085620010FA6300109A6200100A4B091A41
:1007D0000A4A081FC91810B5914201D8C30705D5A8
:1007E000A321074B074A084801F026FAE023000539
:1007F000400D1B02184310BDFC070000FE0F000057
:10080000D7620010D76300109A6200100122824064
:10081000034B1B681340581E8341D8B27047C04633
:1008200000E100E0002904D0034B1860034B18607E
:100830007047034BFBE7C04680E200E000E100E0C8
:1008400080E100E00123834010B51800FFF7EAFFC4
:1008500010BD0000024B10309B688000C0587047EC
:1008600000ED00E070B504000D00EFF3108672B6E5
:100870000C4A1368002BFCD0BFF35F8F2000FFF7FA
:10088000E9FF094B984207D0A84205D08621074BC3
:10089000074A084801F0D0F9320029002000FFF78C
:1008A0006BFF70BD240100D0CD0100100763001064
:1008B000BD6300109A620010F0B5060085B00F000D
:1008C000EFF3108372B64E4A02931368002BFCD0EC
:1008D000BFF35F8F34004B4B10349B68A200D3589A
:1008E0000193019A484B9A4265D0BA4200D180E008
:1008F000464BD31A2F2B5ED83000FFF787FF00211D
:1009000003903000FFF79EFFBFF35F8FEFF3058288
:10091000002A06D0944204D036213D4B3D4AFF3197
:100920005EE001230C21019C8C469C430023374848
:100930000625A1686557B94214D1002D19DA002A9D
:1009400045D1002B40D0FF329A71334A9A80334A06
:100950002E491378A371324B641A644163431B0D13
:10096000137024E0002D46DB63465D4323004419E9
:10097000DEE70C206843254F3B189A68A260DA79BD
:10098000E27106229A56A2719B797F2B1AD8043005
:10099000C019FFF705FF0100201DFFF717FF0C230B
:1009A0006B43FF181D4BA0801A781D70BA71300080
:1009B0000399FFF747FF3000029A0199FFF7DCFE29
:1009C00005B0F0BD1748EAE70F4B0193BFE7164BA0
:1009D0001B1B083B5A081B0B05D0AB21134B144AB9
:1009E000144801F029F9144BA380144B1343E380FE
:1009F000DDE70193DFE76A21114B064A8FE7C04626
:100A0000240100D000ED00E0CD010010A411002071
:100A10003D6300100964001001BDFFFFE01C0020D1
:100A2000AAAA000001BD0000DE1100206F630010C3
:100A3000E36300109A62001000F0FFFF00F8FFFF70
:100A40007F630010F8B50125294A0543AB1A2F2B07
:100A500004D9C721274B284A490007E0EFF3058155
:100A6000002906D19221254B234AFF31244801F069
:100A7000E3F8EFF3108772B6224B9C461C68002CFB
:100A8000FCD0BFF35F8F204B0400A41A6441634382
:100A90001B0D1E4C8900A4685BB26458260000241C
:100AA000AE420FD1194A1A4C92685450194A117823
:100AB00013708171BFF35F8F00236246136087F369
:100AC0001088F8BD06215156994208D10C22544392
:100AD000074A1419FF22A2710F4AA280E6E70134E7
:100AE0000C32042CEED1D1210C4B034AB4E7C046A2
:100AF000A4110020856300101C640010AD63001079
:100B00009A620010240100D0AAAA000000ED00E0C3
:100B1000CD010010E01C002001BDFFFFB7630010F5
:100B2000054B064A1360064A136053609360D36016
:100B300013615361936170478080808000E400E01E
:100B400004E400E0024BC918890001607047C04608
:100B50004000003410B50400FFF702FE0100200041
:100B6000FFF7F0FFFF232371BFF35F8F10BD10B5B8
:100B70000400FFF7F5FD01002000FFF7E3FFFF236E
:100B8000A380BFF35F8F10BD30B5084D03006C6AC2
:100B9000012200208C4206D3AD6A10009D4202D291
:100BA000081B411E8841104030BDC0460040054032
:100BB00070B50C000500080000F012FD2000094986
:100BC00000F054FCFFF7CCFD074B2C75C018D02368
:100BD0001B061B6880006B75044BA4006860E55021
:100BE00070BDC046810E001040000034741C00200F
:100BF0000A4B1868EFF3108272B601680029FCD026
:100C0000BFF35F8F1B68BFF35F8F0021196082F312
:100C1000108840BF002000217047C046881C00207B
:100C200010B5002903D003681B7B8B4205D23C2101
:100C3000054B064A064800F0FFFF064B8068C918BE
:100C40000901401810BDC046DF640010AC670010F9
:100C500001650010FFFFFF0F70B516000500FFF7DC
:100C6000DFFF310004002800FFF7DAFF6268416807
:100C70000123914205D803D101682268914200D82E
:100C80000023D8B270BD00003F2110B5024B034ACB
:100C9000034800F0D1FFC046386500106C670010B3
:100CA0005365001010B5040000F0C8FB002901DAFC
:100CB000FFF7EAFF20602000616010BD0B0010B557
:100CC000002902D0027B8A4205D26821054B064AE0
:100CD000064800F0B1FF032159430068033940186A
:100CE00010BDC0469865001081670010B465001003
:100CF00010B5427B01238A4204D0FFF7DFFF8378DF
:100D0000581E8341180010BDF8B507000D001400EF
:100D1000FFF7D4FF0600002D05D16F210E4B0F4ABF
:100D20000F4800F089FF002C03D170210D4B0B4AB6
:100D3000F6E7A54203D171210B4B084AF0E72100E9
:100D40003800FFF7BBFF85703378002B01D134707A
:100D5000F8BD4370FBE7C046FE6500108D670010CC
:100D6000B46500101566001008660010F0B585B077
:100D700002930CAB1C780DAB1B7807000568019241
:100D80000393002C0BD021002800FFF7B1FF0028AF
:100D900015D067212B4B2C4A2C4800F04DFFAC7B23
:100DA000002C44D021002800FFF788FF4378AB7364
:100DB000002B00D1EB73002383704370037021007C
:100DC0003800FFF72DFF019B21000360029B436069
:100DD0000A9B83600B9BC3602800FFF76FFF002313
:100DE0008370437003706E7B9E4228D022003100D6
:100DF000A8686B68984700281CD0220031002800A2
:100E0000FFF782FF6E73A64211D1387D019A029BD3
:100E100000F076FB051E06D0039B002B03D12100BA
:100E2000386800F009FD0E9B002B00D01D702000DB
:100E300005B0F0BD320021002800FFF765FF260055
:100E4000E0E7C0461E660010DF6700100165001075
:100E500010B5002903D003681B7B8B4205D24121CA
:100E6000044B054A054800F0E7FEC0680139401808
:100E700010BDC046DF640010B667001001650010A9
:100E80000023F0B593B00A93774B8200D6580E90AA
:100E900010A8FFF707FF109B119C72680893099434
:100EA000EFF3108572B61368002BFCD0BFF35F8F91
:100EB00033685F7B0793002F6BD039003000FFF75A
:100EC000AFFE02684368040008980999121A8B4122
:100ED000002B52DC01D1002A4FD10021079800F0ED
:100EE000A1FCB84205D08E21604B614A614800F0F8
:100EF000A3FE226863680C920D93A3680793E368CE
:100F00000893079B002B03D192215B4B584AEDE7D6
:100F100039003000FFF79CFF037800200A931B0282
:100F20003B4333617368BFF35F8F00221A6085F320
:100F30001088079B934200D190E00A9B08991B02FE
:100F40003B430B931800079B9847726804000D0001
:100F5000EFF3108372B60F931368002BFCD0BFF32E
:100F60005F8F002D3CDA3369002B4ED00B9A9342F1
:100F700017D0A121414B3E4AB8E7226863680E981A
:100F800000F0BEFA002400230C930D9408930793FD
:100F9000C8E70023002438000C930D9408970797A6
:100FA000C0E70C9A0D9B121BAB41002B02DA012209
:100FB000334B5242002104910131039108993000D2
:100FC0000191079902970091FFF7D0FE0023726804
:100FD0003361BFF35F8F13600F9B83F3108857E774
:100FE00023002B4311D03369002B0ED00B9A934270
:100FF00003D0A421214B1E4A78E710A8FFF752FE28
:10100000109A119B12196B41CFE73468002F05D05D
:1010100039002000FFF76CFE002804D0F621194BA0
:10102000194A1A4863E7E57B002D04D02900200007
:10103000FFF744FE4770A37B002B06D1002D03D0A1
:10104000FB21134B104AECE7A77339003000E7731C
:10105000FFF7FEFE037801330370B7E7002800D0E6
:1010600016E713B0F0BDC046741C002046660010A1
:10107000F4670010016500105C66001065660010E2
:10108000FFFFFF7FA16600109F670010B46500108E
:10109000C366001010B50B4C6368002B0CD11021F7
:1010A0002300094A206800F03BFB032000F0BAF956
:1010B00003212000FFF77CFD0A210448FFF742FDD1
:1010C00010BDC046EC110020590C0010881C0020F7
:1010D000054810B54368002B05D15E21034B044A37
:1010E000044800F0A9FD10BDEC110020D7660010E7
:1010F000C867001001650010F0B5160027221F0018
:10110000002304008FB016A909780893099104A957
:10111000521813706268EFF3108372B60693136867
:10112000002BFCD0BFF35F8F272304AA9B180493E6
:10113000089B320003930293159B20000193149B9C
:1011400000933B00FFF712FE05000020854204D00B
:1011500029002000FFF77CFE00786368BFF35F8FF3
:10116000089A1A60069B83F31088002D21D027234C
:1011700004AA9B181B78002B1ED1000228430FB035
:10118000F0BD06900791002909DA069A079BB61A66
:101190009F41002FBEDA01260D4F7642BAE70AA81A
:1011A000FFF780FD069E079F0A9A0B9BB6185F41CA
:1011B000EFE701204042E2E7099B002B06D0149B99
:1011C00000201599984703000B43DAD10020D6E799
:1011D000FFFFFF7FF7B505000C1E3CD04268EFF320
:1011E000108372B601931368002BFCD0BFF35F8F9E
:1011F0002F68E6B231003800FFF77AFD2B6900282E
:101200001DD09C4206D12C21144B154AFF311548A4
:1012100000F012FD31002800FFF71AFE240A0378BF
:10122000E4B20020A3420DD13100380000F004FBED
:10123000002807D199210C4B094A4900E7E79C4255
:1012400000D128616B68BFF35F8F00221A60019B99
:1012500083F31088FEBD0800FCE7C046F866001066
:101260000E680010016500101C670010F0B5EFF368
:10127000058306000F0087B0002B02D0264800F03F
:101280006DFD06246442E517A4197D418D4206D800
:1012900001D1844203D8002D03DAFFF7F5FC0024C6
:1012A000002504A8FFF7FEFC0498059922002B00F6
:1012B000121A8B41002B08DC01D1002A05D1300025
:1012C000390000F0C5F807B0F0BDFFF701FF0023BB
:1012D00002930193114B220000932B00FFF70CFFA8
:1012E0000028ECDB20002900FFF74EFC0028E6D1A7
:1012F0000B4B1868EFF3108272B601680029FCD01E
:10130000BFF35F8F1B68BFF35F8F0021196082F30B
:10131000108820BFE6E7C0461F670010F10B0010E1
:10132000881C002037B50D0004006846FFF7BAFCA2
:101330000098019900196941002902DA0120024947
:101340004042FFF793FF37BDFFFFFF7F7FB5EFF30D
:10135000058605000C00002E05D028002100FFF7AF
:1013600013FC04B070BDFFF7B3FE084B0296019664
:1013700000932A002300FFF7BFFE061EEDDD20BF0D
:10138000FFF7A6FE3100FFF725FFE6E7F10B00109F
:10139000F7B5EFF30583180001931038EFF31087CA
:1013A00072B6194B1A68002AFCD0BFF35F8F012672
:1013B00031008140154B164D69631960154B1B7840
:1013C0001A00C24094466446002234420AD0124EAB
:1013D0006C6A8500AE59B4420FD3104A8B430D4955
:1013E000AA580B70BFF35F8F002307490B6087F388
:1013F00010889A4200D09047F7BD019B08499B0096
:101400005B1819681960EDE7280100D03C700540B1
:1014100000400540E11C00208C1C0020301C0020F6
:10142000D03F054010B50100024A0348FFF76DF9AF
:1014300010BDC046266800109F1C0020034B596A4F
:101440000A00986A596A8A42FAD1704700400540FA
:10145000054B5A6A8A42FCD38A4202D19A6A824276
:1014600000D370475A6AF7E700400540F7B504001B
:101470000D00EFF3108772B61C4B1A68002AFCD0DF
:10148000BFF35F8FA3001A4E0193002D1BD02000E5
:10149000FFF7E0F986420BD031002000FFF7E2F9B8
:1014A00001212000FFF7CEF90123A340114A136068
:1014B000114B019A9D50BFF35F8F00230B4A1360BD
:1014C00087F31088F7BD0C4BA2009D500122A2406B
:1014D0000A4920000B7893430B703100FFF7ECF9B9
:1014E00029002000FFF7AEF9E5E7C046280100D04B
:1014F0009113001038600540301C0020E11C0020D2
:10150000F0B587B01E0007000492FFF797FF049B19
:10151000350003938E4202D850D183424ED9EFF367
:10152000108372B60593264B1A68002AFCD0BFF3CD
:101530005F8F0124BC40234B04991B780193234304
:10154000DBB20293029A1F4B1A701F4B3A1D920096
:101550005C63D1501D49BA0056501A6A1E002242DF
:1015600013D11B6C23420AD00020BFF35F8F0023EE
:10157000134A1360059B83F3108807B0F0BDC521A3
:10158000134B144A144800F057FBFFF757FF8D42E6
:10159000EAD802D1039B8342E6D8029B019A01203C
:1015A0009342E2D01F2302003B409A400B4B34622F
:1015B00074631A60034B019A1A70D6E70120DCE7C6
:1015C000280100D0E11C0020004005408C1C0020B8
:1015D00048680010AA6800106968001080E200E006
:1015E00010B5EFF3108472B60A490B68002BFCD0DB
:1015F000BFF35F8F01238340074A084813620278D4
:101600009A430270BFF35F8F00230B6084F310884E
:1016100010BDC046280100D000400540E11C00205C
:101620000B0010B5002902D0027B8A4205D2682146
:10163000054B064A064800F0FFFA032159430068AB
:101640000339401810BDC04698650010636900104A
:10165000B4650010F8B507000D001400FFF7E0FFB7
:101660000600002D05D16F210E4B0F4A0F4800F0E8
:10167000E3FA002C03D170210D4B0B4AF6E7A5428B
:1016800003D171210B4B084AF0E721003800FFF726
:10169000C7FF85703378002B01D13470F8BD4370DB
:1016A000FBE7C046FE6500106F690010B4650010CE
:1016B000156600100866001070B506000C001500D5
:1016C000002912D0002A09D0806873689847002842
:1016D00006D02A0021003000FFF7BCFF200070BDBB
:1016E000220029003000FFF7B5FF2C00F6E770B5A7
:1016F000002301240500067B43738473C673A6424E
:1017000006D831002800FFF78BFF0023437070BD1F
:1017100021002800FFF784FF0134E4B24470EEE7B3
:1017200010B5017342608360FFF7E1FF10BDF7B5AC
:1017300005000C1E21D0FFF773FF4678002E1CD049
:1017400031002800FFF76CFF002743782100477025
:1017500028000193FFF764FF320021004770280042
:10176000FFF7AAFF019904002800FFF7E0FF21001E
:1017700002002800FFF7A0FF04002000FEBD0000CB
:10178000F8B504000D001700002905D138211F4BC2
:101790001F4A204800F050FAFFF742FF4378002B21
:1017A00003D03A211C4B1A4AF3E78378002B03D06D
:1017B0003B211A4B164AECE701782000FFF7B7FFF0
:1017C0000600002F12D0E77B002F04D03900200044
:1017D000FFF726FF4570A37B002B06D1002F03D017
:1017E00042210F4B0A4AD4E7A573E573002E05D0BA
:1017F00031002000FFF714FF002383702900200030
:10180000FFF70EFF002343703000F8BD5B69001046
:1018100081690010C4680010FC6800102169001084
:10182000C366001070B5457B0A0029000400FFF76D
:10183000A7FF6073280070BD70B504000D1E3CD07A
:10184000437B8B4204D10121FFF7ECFF012070BDE7
:10185000FFF7E6FE0600817800208142F7D02000E5
:10186000FFF7DEFE0178A94211D1737803700023DF
:10187000012229002000B3707370FFF781FF617BA4
:101880000200814214D171210D4B0E4A0DE020005F
:10189000FFF7C6FE4178A94202D173784370E6E7AC
:1018A0000029F4D1084B074A6B31084800F0C4F90D
:1018B0002000FFF701FF6073C8E70800C7E7C046D4
:1018C0004569001094690010B7630010C4680010E7
:1018D000F0B585B01D000A9B0700009103929D4260
:1018E00005D23321324B334A334800F0A5F90C249A
:1018F0002B0E02932D02002328000A9A029901F070
:1019000095FA7C432D4B0600E4186368834200D2AD
:1019100060603B1FDBB20193C023019A9B0123430C
:10192000012A34D8009A012A31D102321A60009B70
:10193000A2681A42FCD0039A236852015A408021BF
:10194000E02349011A40019B21430A60012B0BD877
:101950002368009A5340032213400B600123009A2E
:101960009340A2681342FCD0802380229B01234332
:1019700012011A602800320000230299666001F00B
:1019800055FA0F4BBF00D851012005B0F0BD8022A1
:1019900012011A600A4BBA00D1580029CBD05869FD
:1019A00001F006FA431C032058430338FDD2C2E776
:1019B000AC690010006A0010BD6900100080004092
:1019C000401C002073B50C2000F0F8F8FEF774FE00
:1019D00000280AD000232C4A2C4899000133885053
:1019E0000A2BFAD12A4B536273BD2A4CA06700F030
:1019F000EDF80122284B1A60636C012BFCD1032205
:101A0000264B1A60A66B012EFCD10225052431005D
:101A100000950623224A234800F054F823003100A1
:101A20000094214A214800F04DF8214B2900214D16
:101A3000009300220420FFF74BFF2B00310000220F
:101A400020000095FFF744FF0022104C11002300F6
:101A500000940720FFF73CFF0022230011000094B0
:101A60000820FFF735FF0022094B110000930920E1
:101A70002300FFF72DFF00222B0011000095062008
:101A8000FFF726FFB0E7C046401C0020006CDC02D8
:101A90001BB70000008000403CB0004030B0004068
:101AA000002F685900800240008C864700C0024029
:101AB000001BB70040597307014B8000C0587047A6
:101AC000401C0020F8B51700040030480D001E002F
:101AD00001F06EF92E4B0100FA182E4B9A4205D9EF
:101AE00011212D4B2D4A2E4800F0A6F8380001F0A8
:101AF0005FF902009823103A5B009A4203D919213A
:101B0000284B264AEFE7731E062B03D8069B013BA2
:101B1000062B03D91C21244B204AE4E7069A330400
:101B200016031E432368002B0FDA3F22236813405D
:101B3000AB420AD1A3681B051B0D834205D1EE22DF
:101B4000E368D2021340B3421BD0184B9C4219D019
:101B500080235B01164A17491360174A13601F0060
:101B60008A689743FBD1C023221D9B011343212286
:101B70002560A0601A602268002AFCDA0822E6606C
:101B80001A60F8BD80239B01E4E7C046001BB70044
:101B900080E84BD380F8A932106A0010116B001056
:101BA0006F6A0010AC6A0010C86A001000C00240E2
:101BB00000E0004000C0004000F000408023024AE6
:101BC0009B000343D362704700800540AA22064B66
:101BD00012011A602F220549DA60054A11605A681D
:101BE000002AFCDA7047C0460040024000B0FA000C
:101BF0000060024000BEFDE7084A030011680029AA
:101C000001D10749116010680649C3188B4201D8F9
:101C10001360704701204042FBE7C046701C002063
:101C2000E81E0020000004200020704701204042F0
:101C3000704710B5FFF7DEFF13B50C001900074B16
:101C4000002A01D1064B1A000192009302002300E2
:101C5000044802F0D5F80120FFF7CCFF1A6B001002
:101C6000C36B0010276B00102A4B2B4A70B51A600B
:101C70002A4A2B4C15002B4B23601800916888438F
:101C8000FBD1294E294B9E4229D3FFF79BFE284BBF
:101C90002360AB68DB018033FBD14022254B264813
:101CA0009A675A671A67DA66244B98421AD3244D0A
:101CB000244CC0222800A16801F068FFEFF30583DF
:101CC000A560002B00D000BEFEF73CFDFEF728FF0C
:101CD000FFF7E0F91C4C1D4B9C4217D370BD08CE9A
:101CE0009847CFE7040003680834002B0BD0012B82
:101CF00005D08721164B174A1748FFF79DFFFEF7BF
:101D000036FF2000D0E7FEF725FFFAE708CC98471A
:101D1000E1E7C04600E00040BFCDFBFE00C0004050
:101D200000F00040FE7F3C00981A0020A81A002016
:101D3000FFFFFF0100F00140901A0020981A0020D8
:101D40000000002000ED00E0A81A0020B01A0020DA
:101D5000566B0010C46B0010736B00100FB407B506
:101D6000084802F01BF8049B002B07D005A91800B7
:101D7000019102F023F8044802F010F80120FFF767
:101D800039FFC046B46B0010C26B00107047F0B54D
:101D900085B002930D9B0F00140001909B0732D079
:101DA00000920B9E0B9A009B9D18AA1B002E2CD113
:101DB0000D9B9B070FD52B1B03930093009B009952
:101DC000E2180C9B8B4228D8039900228B4201D346
:101DD000E418621BAD18280005B0F0BD39002020C2
:101DE000029B019EB04701350B9BE21A0C9B5219D6
:101DF0009D42F3D30B9A0C9900238A4200D88B1A88
:101E00001B190093CDE70B9DEEE70A9B013E985D01
:101E10003900029B019DA847C4E7029B390020209E
:101E2000019EB047009B0133C7E7F0B589B00700BA
:101E300010A806781498059106920E990F9A139C93
:101E4000079383071ED401250540002C07D0002DE1
:101E500005D0002E02D10C23184200D0013C3023C3
:101E60009C4602E063468B540132129B9A4201D297
:101E7000202AF7D130239C46002D03D0A24201D264
:101E80001F2A19D9C3063AD543051AD4002A18D0F7
:101E9000129B9A4201D0A24213D1551E012A0FD0A3
:101EA000119B023A102B0FD02A00119B022B21D13B
:101EB0001F2A0ED862251BE063468B540132DBE7F4
:101EC0002A00119B102BF0D183060ED478251F2AEF
:101ED0000ED90390019200913800079B069A05994C
:101EE0000294FFF754FF09B0F0BD58251F2AF0D81F
:101EF0008D5401321F2AECD830258D5401321F2A0F
:101F0000E7D82D25002E05D12B25430702D4030742
:101F1000DFD520258D540132DBE7F0B597B00A926A
:101F20001CAA0B9308CA0D001278219C09900C92F0
:101F3000002B01D110229443620501D5002B1FD044
:101F40006122A10600D541221E000027D2B20A3A22
:101F50000D9230001E9900F02BFF0D9ACBB29A180B
:101F60008446D2B2092901D83033DAB2202006A93A
:101F70000918CA551E9A7B1C964201D3834213D17D
:101F8000209A019305921F9A0EAB04921E9A009319
:101F900003920C9A290002920B9B0A9A09980694C4
:101FA000FFF743FF17B0F0BD1F006646D1E7F0B55D
:101FB0009BB00D9322AB1B78209D0E932B00219C90
:101FC000249F259E0A900B910C92234303D1289ABB
:101FD00010339A432892289B5B0504D52A000023DE
:101FE00022439A422AD0289A6123920600D541239F
:101FF0000022DBB20A3B09920F933A00330028001B
:10200000210000F013FF0F9BD2B2D318DBB29C4625
:1020100010901191092A02D83032D3B29C46202068
:102020000AAA12186046099B099901335054A64226
:1020300004D801D1AF4201D8202B13D1289A0193A3
:102040000692279A12AB0592269A009304920E9A52
:102050000D9B02920B990C9A0A980397FFF7E5FEE5
:102060001BB0F0BD109D119C0993C6E710B5002868
:1020700002D00B684968984710BD0000F0B595B0D4
:102080000F931A9B0E920A931B9B0A9A0B930B9B1E
:102090000C900D911000190001F053F9002811D196
:1020A0000122D84B0A980B99524201F045F90028B9
:1020B00008D10122D44B0A980B99524201F026F91B
:1020C000002813D01E9B0A9A04931D9B0D9903931D
:1020D0001C9B0C9802930B9B009201930F9B0E9AF2
:1020E00000F0CCF90600300015B0F0BD002200234E
:1020F0000A980B9901F00AF9002800D16DE18022BD
:10210000120694460A9B06930B9B63440793802315
:102110001E9ADB001A4011921E9A1A4201D1062320
:102120001C93069D079B069E079F1D4300D159E106
:102130005800B64B400DC01801F016F9B44AB54B23
:1021400001F0A1F8B44AB54B01F076F8079BB44A08
:102150001B031B0B1A4304000D0030001100B14B90
:10216000002201F060F8B04AB04B01F08CF8020098
:102170000B002000290001F05FF801F00DF9099033
:1021800001F0F2F8AA4AAB4B06000F0001F07BF811
:102190000022A94B01F050F801F0FEF8A74AA84B25
:1021A00039001090300001F06EF8060010980F0012
:1021B00001F0DAF8A34AA44B01F065F802000B0025
:1021C0003000390001F02FF802000B0004000D0070
:1021D00001F059F8220006000F002B002000290012
:1021E00001F02AF8002212901391984B3000390028
:1021F00001F02BF80022964B01F01EF802000B00B4
:102200003000390001F021F80022924B01F014F85F
:1022100002000B003000390001F017F80F00802198
:10222000060022002B000020C90500F0FCFF020080
:102230000B003000390000F0FFFF02000B00129885
:10224000139901F002F80022754B00F0F5FF824A65
:10225000109B9446634400221B0501F014F806000D
:102260000F0002000B000698079901F04FF80028B4
:102270000AD0099B3000013B390009930022744BBE
:1022800000F0E3FF06000F00099B05246333C62B13
:1022900000D8A8E01E9B1B0525D533003B4311D079
:1022A000069807996D4A6E4B01F03EF8002800D160
:1022B0009DE00698079900226A4B01F027F8002854
:1022C00000D194E0099B1C9A934200DB8DE013003F
:1022D000099A9D1A6B1E1C93802300241E9ADB0012
:1022E0001A431E9209941D9B0025A34200D91D1B71
:1022F00002231E9A1A4010921E9A1A4203D0634279
:1023000063415B421D40099B002B07D0069807994B
:1023100032003B0000F099FF069007910022002355
:102320000A980B9900F0F2FF002809D080200006DF
:10233000844606990A00079961440B0006920793A8
:102340001E9A494B0D99134004931C9B0C980293C1
:102350000395069A079B009201930F9B0E9A00F03B
:102360008DF80600002C00D1BDE61E9B45209B0683
:1023700000D4203032000F9B0D990C9DA8470523F7
:102380000593002303930A330293099B771CDB0F09
:102390000193099B013CDA179D1855400F9B3A00A9
:1023A0000D990C9804940095FFF7B7FD109B06005B
:1023B000002B00D197E60E9BC51A2C000E9B1A1914
:1023C0001D9BA34252D80022AB4204D31D990E9B01
:1023D0008C4663449A1BB61885E60A980B990690BA
:1023E000079194E60995042454E7002373E71C9BA6
:1023F000002B00D177E7119B5A1E93411C9AD31AE8
:102400001C9370E7FFFFEF7FFFFFEFFF01FCFFFF73
:10241000FB799F501344D33FB3C8608B288AC63FD3
:102420000000F03F0000F83F61436F63A787D23F91
:1024300071A379094F930A400000E03F1655B5BBE0
:10244000B16B0240EF39FAFE422EE63F00002C400D
:102450000000244000001840FF0300002D431CEB47
:10246000E2361A3F80842E41FFF7FFFF20200F9BAA
:102470000D990C9FB8470134A0E7C046F0B59BB05A
:10248000209E219F09900A910B920C9332003B00F1
:1024900030003900229C00F054FF002808D0249B13
:1024A0000393239B029303230193B04B009324E0F7
:1024B000012230003900AE4B524200F027FF0028C5
:1024C00007D0249B0393239B029304230193A94BDE
:1024D000ECE7012230003900A74B524200F02CFFFC
:1024E000002814D00423249A1A420DD0A34A249918
:1024F000019303912399009202910C9B0B9A0A99E4
:102500000998FFF744FC1FE003239D4AEFE70022F0
:10251000300039009B4B00F00FFF002807D100224C
:1025200030003900984B00F0F1FE00280ED0249BBB
:10253000009601970493239B0B9A03930A990C9B93
:1025400009980294FFF79AFD1BB0F0BD002200230A
:102550003000390000F0DAFE002877D03B0032006E
:102560000020002100F05FFE012306000F000D9304
:10257000249B5B056CD52200302112AB203A0894D5
:102580000898251A092807D9089819700138089061
:1025900001339042F4D120253900300000F0FCFED8
:1025A000089B0790DA00794B9B185C681B680E93B8
:1025B0000F9400F0D9FE02000B003000390000F04B
:1025C00032FE0E9A0F9B00F05EFE1090119100F00B
:1025D00007FF040000F0C4FE02000B0010981199E0
:1025E00000F021FE00226A4B1090119100F0A4FE31
:1025F00000282FD00134200000F0B2FE02000B00B2
:102600000E980F9900F088FE002803D00024079B45
:1026100001330793089B002B2AD00A27202D49D18C
:102620000323249A1340012B00D08BE0239B002B23
:1026300000D187E00D9B002B02D10C331A4202D04F
:10264000239B013B2393302212AB6FE00D908FE769
:10265000062490E70022109811994D4B00F056FE89
:102660000028D7D1002C01D0E307D3D50134D1E71E
:10267000079800F079FE02000B003000390000F0EE
:10268000D2FD0022424B06000F0000F03FFE002862
:102690000CD10022300039003D4B00F04DFE0028E7
:1026A00004D10123079A1340D31807932C000A265C
:1026B00012AF36E0089B3900013B2000089300F080
:1026C00077FB18220CAB30319B185955200039008C
:1026D0006E1C00F06DFB092C0DD835003020089BD6
:1026E00012A99B19202D9BD06A1C9D4206D12E2336
:1026F0004B551500DAE7350004008FE74855150003
:10270000F0E70798310000F02BFB30310798E155D6
:10271000310000F025FB01350790002800D17FE74C
:102720002C00202DEDD17BE7EA5401352399A942F5
:1027300008D9202DF8D1249B01950393239B029364
:1027400012ABB3E6202DF6D00D9A12AB002A03D0BF
:102750002D225A550135EEE7249A520701D52B2236
:10276000F7E7249A1207E6D52022F2E7DA6B001089
:10277000FFFFEFFFDE6B0010FFFFEF7FD56B001058
:10278000D16B001065CDCD4165CDCDC1E86B00109A
:102790000000E03FF0B59BB01500209F0D900E911A
:1027A0000F93002901D18C4B0D9300260BE00F9B5A
:1027B00001330F93252816D03200741C2B000D9E78
:1027C0000E99B04726000F9B18780028EFD13200F1
:1027D000AE4200D36A1E2B0000200E990D9CA0472C
:1027E00030001BB0F0BD00220120082405E02D2B95
:1027F00016D0302B0CD102430F910F9B0F991B78F1
:1028000001312B2B0FD0F2D8202B0ED0232B0ED042
:102810001800303809282DD800230A240B930EE025
:1028200002231A43E8E70423FBE72243E4E71023EB
:10283000F7E70B9B0F906343303BCB180B930F9B39
:102840001978581C0B00303B092BF2D90F9B1B78D1
:102850002E2B57D10F9B591C8023DB001A430F9B53
:102860005B781800303809283ED800230C930A33CF
:102870009C4615E000200B902A2BE7D108CF0B9344
:10288000834204DA02231A430B9B5B420B930F91A2
:10289000DCE760460C99414330395B1821000C930A
:1028A0000B784C1C180030380928F2D908784B1CDA
:1028B0006C2832D02AD8682837D06A283DD00B003F
:1028C0001C7801330F93782C04D8572C38D8452C1A
:1028D00062D05CD8731C320020000B930E992B0041
:1028E0000D9CA0470B9E6EE700200C902A2BDDD19B
:1028F00008CF0C93DB430C99DB1719400C910F990F
:102900000231D3E700230F990C93CFE7742801D04D
:102910007A28D4D1802149000BE048786C28F9D17D
:10292000C0239B001A438B1CCAE74878682802D052
:1029300080210A43C4E7C023F4E780218900F8E737
:10294000200058382028C5D803F002FC4800C4FFF6
:10295000C4FFC4FFC4FFC4FFC4FFC4FFC4FFC4FF5F
:102960004800F80048002600E5002600C4FF4800A3
:10297000C4FFC4FFC4FFC4FFC4FF4800B301C4FFC9
:10298000C4FF4001C4FF4800C4FFC4FF4800462CF8
:1029900000D1BEE0472C9DD1202321009943472937
:1029A00004D180231B011A4302239C43452C01D1EF
:1029B00020231A43072307379F430B9B049203935B
:1029C0000C9B0E9902930CCF0D98009201932B0053
:1029D0003200FFF753FBAFE08D1D0010782C47D07D
:1029E000582C00D179E16F2C00D17AE1622C00D112
:1029F00079E110239A43063B692C03D0642C01D063
:102A00000C218A43510501D501218A438021890087
:102A10001140692C01D0642C46D100292AD007210D
:102A200007378F433C0003CF049300230593CB0F5C
:102A30000293CB1711931093434014930892119B68
:102A40000B9A4B4007920C9A159306921098119985
:102A5000149A159B121A8B410834009201930E9917
:102A60002B0032000D98FFF7A2FA06002700AAE615
:102A70001023C5E73C1DD1050DD5396805920B9A89
:102A80000293CB0F049201930C9ACB17C9180392AF
:102A90005940009125E03968500601D5C9B2EDE7EB
:102AA0001006EBD509B2E9E700290ED007370493E9
:102AB000072100233C0008920B9A8C4307920C9A42
:102AC0000593069202930CCCC7E73C1DD0050FD5A9
:102AD00005920B9A029304920C9A019103923B681F
:102AE00000932B0032000E990D98FFF716FABCE701
:102AF0003968500609D5C9B20293002305920B9A92
:102B0000019304920C9A0392C3E71006F4D589B29C
:102B1000F2E720231A43072307379F430B9B0492B6
:102B200003930C9B0E9902930CCF0D980092019386
:102B30002B003200FFF7A2FC060044E602231340FC
:102B40001293022301241A4218D1320005E02B000F
:102B500020200E990D9CA0470C9A0B99531C0C93A6
:102B60009B1B8B42F3D30023994201D00B00013B06
:102B7000F6180B9B0224002B00D05C1C01CF731CA9
:102B800032000C930E992B000D9EC0B2B047129BE1
:102B9000002B19D00C9A12940AE0531C1393202096
:102BA0002B000E990D9EB047129B139A013312937E
:102BB0000B9B12999942F0D30B9A0023A24200D3A7
:102BC000131B0C9AD3180C930C9EFCE5390008C912
:102BD00013930C9B1691002B01D101235B42139997
:102BE0000C00CB182178002901D09C4214D1139BF2
:102BF0001100E41A8023DB00194017911A4203D018
:102C00000C9B9C4200D91C00022313401893022302
:102C10001A4217D1320009E00134E3E7531C129342
:102C200020202B000E990D9FB847129AA31B0B99D9
:102C30009B189942F2D80023A14200D30B1B013408
:102C4000F6181C1912960AE00C93129B129A013383
:102C500019930E992B000D9FB847199B1293139B44
:102C6000129A9B1B985C002807D0179B002BECD076
:102C70000C9B0C9A013B002AE6D1189B002B15D027
:102C8000129A06E0561C2B0020200E990D9FB84783
:102C90003200129B0B99E31A9B189942F2D8002339
:102CA000A14200D30B1B129AD3181293169F129EA7
:102CB00089E521231A43193B04930C9B0592039346
:102CC000102302930023019308CF320000930E9942
:102CD0002B000D98FFF721F92EE720231A43103B14
:102CE0008EE608238CE602238AE6C0461FB50391D0
:102CF000012102900093044813004A4202A9FFF701
:102D000049FD05B000BDC0466D20001001480421FA
:102D1000014B1847201200203D2D0010142310B540
:102D20000100188804331B88984710BD162310B57E
:102D30000100188802331B88984710BD70B5040045
:102D4000012689004518AC4201D1300070BD2068D1
:102D5000FFF7E4FF01C4431E984140420640F2E7FA
:102D6000124A936F9B0815D29066D166002905D050
:102D7000FFE7FFE7FFE7516F106F704704B5802151
:102D80000906C2175140002800D0C84303F0C0F91B
:102D9000002104BDF0B5146E556E576F166FFFF726
:102DA000E3FF1466556657671667F0BD000000D054
:102DB000114A936F9B0813D210665166002905D003
:102DC000FFE7FFE7FFE7516F106F704704B500287A
:102DD00001D00020C04303F09BF9002104BDC04690
:102DE000F0B5146E556E576F166FFFF7E5FF14665A
:102DF000556657671667F0BD000000D094464A4AF2
:102E0000926F9208624601D228E0C046F0B5464E65
:102E1000346E756E776F366F00F020F89446424A34
:102E200014665566576716676246F0BD94463E4A7B
:102E3000926F9208624601D254E0C046F0B53A4E15
:102E4000346E756E776F366F00F04CF89446364AE4
:102E500014665566576716676246F0BD002B24DB83
:102E600011D000293EDA00B5C943404200D10131FA
:102E700000F038F8C943404200D10131DB435242EF
:102E800000D1013300BD002AEBD1002801D1002977
:102E900005D00020C90FC90701D1C043410800B5C2
:102EA00003F00EF90022002300BD00B500290ADB63
:102EB000DB43524200D1013300F014F8C9434042D1
:102EC00000D1013100BDC943404200D10131DB4393
:102ED000524200D1013300F005F8DB43524200D1E9
:102EE000013300BD002923D1002B18D1002A0CD0BA
:102EF000BC460D4F38667A6600210023FFE7FFE7E6
:102F0000FFE77A6F386F67467047002801D007489F
:102F1000010000B503F0D4F80022002300BD020038
:102F20000B00002000217047000000D0FFFFFFFFD2
:102F3000002B00D0BFE0130C28D1002AE7D080B4CA
:102F4000114F39667A66FFE7FFE730B4040C7B6FF8
:102F5000396F1B0423433B667A66FFE7FFE7FFE711
:102F6000C04684B27B6F3D6F1B0423433B667A6689
:102F7000FFE7FFE7C04600232C042D0C7A6F386F63
:102F800000196941B0BC7047000000D0F0B594460C
:102F90000025140E01D112020835140F01D11201BF
:102FA0000435940F01D192000235D40F01D15200A3
:102FB0000135D40B0134254F7C66254C3C660E0C44
:102FC00093B2FFE7FFE7FFE73C6F6643360C7703FA
:102FD000BE467343DF0B5B04C01AB941130C734345
:102FE000DB18C91ACE086643360CB64493B2734355
:102FF0001F0F1B01C01AB941130C73431F0B1B0594
:10300000C01AB941860D8F023E436643360C092D26
:1030100024DB520A7243801A7703460A6643360C51
:1030200016235B1BDE40DF40BF1964466643821BEC
:103030007046043506330100D940A840C01900D3BA
:103040000131A24206D20023F0BD0000000000D0F2
:10305000FFFFFFFF121B0130F3D3F1E709277F1BAE
:10306000FE406446A2B27243801A00D20139220C9B
:103070007243130C1204821A99410B0070460435F6
:1030800013370100F940A840801900D30131002B0B
:1030900002D1A2420AD2F0BD013000D30131121B8D
:1030A000FAD2013BF8D1A24200D2F0BD013000D3E8
:1030B0000131121BF7E7F0B51C0C00D080E00CB416
:1030C00000251C0A04D11B02160E334312020835D8
:1030D0001C0B04D11B01160F3343120104359C0B4A
:1030E00004D19B00960F334392000235DC0B02D1D2
:1030F00092185B4101351C00971864410134464F1A
:103100007C66464C3C660E0CFFE7FFE7FFE7C046D7
:103110003C6F6643360C7703BE4697B27743C01BBD
:1031200000D20139C01B00D201399FB27743C91BBD
:10313000C91B170C77437E04FF0B801BB941CE08D7
:103140006643360C0C2D33DBB644120B1F053A4395
:103150001B0B97B27743C01B00D201399FB2774354
:10316000C91B170C77433E043F0C801BB941860DE9
:103170008F023E43664329277F1BFE400C3D774666
:10318000AF40BF1930BCA2B2ABB272437343801AD6
:103190009941220C7243130C1204801A99410200C7
:1031A0000B000137001BA941F9D2781E0021F0BDA8
:1031B0000C277F1BFE4077467F0BAF40FF19E0E7EF
:1031C00000245D1C07D0144F7D663966FFE7FFE7DA
:1031D000FFE7FFE73C6F95B29EB265436643401B35
:1031E000B141150C1E0C6543664336042F0C3E435B
:1031F0002D04401BB141994204D202000B00200073
:103200000021F0BD01D19042F7D3801A99410134D9
:103210009942F2D3F6E70000000000D0FFFFFFFF65
:1032200048404140484018B41B4B5B68FC46019342
:1032300008BD04DFEB34001018B4174B1B68FC46C4
:10324000019308BD00DFF53400109446134A926FD5
:10325000920809D2624618B40F4BDB68FC46019312
:1032600008BD0CDFAD3700100C4AF0B5146E556E7A
:10327000576F166F6246FFF7EEFF084A14665566F1
:1032800057671667F0BD18B4034B9B68FC46019363
:1032900008BD08DF51360010E41C0020000000D0FB
:1032A000FFB550404240504059404B40594000E02B
:1032B000FFB5154F4C00640D03D0BC4204D10C0384
:1032C00014D80020090D09055C00640D03D0BC4230
:1032D00004D11C030AD800221B0D1B0501264B40FC
:1032E00009D44B4003D58B4200D18242FFBD9942A5
:1032F000FCD19042FFBD0B43DB1803431343F5D0D1
:10330000C9434918FFBD0000FF07000000B5FFF7E3
:10331000CFFF804100BDC04600B5FFF7C9FF01D90E
:10332000002000BD012000BD00B5FFF7B9FF01D9A5
:10333000002000BD012000BD00B5FFF7B1FF8041B6
:1033400000BD012040054A00121804D85A00121886
:1033500001D800207047012070470020704700000E
:103360000021002805D17047C1174840401AFAD003
:10337000C90713B5064B1B6898470CBC441CA240F8
:103380001005120B0349091B09051943114310BD10
:10339000841C00201F04000010B54C00620D802327
:1033A000D218DB00D21A5B057E2A10DD9E3A13DAB2
:1033B000CC170903490819435242D1406400013433
:1033C0001532202A05DAD0400843604310BD0020A2
:1033D00010BD0846604310BDC80FC018013810BDAD
:1033E00018B4044B5B6AFC46019308BD24DF5D39C9
:1033F00000100000E41C0020132370B51D78204C41
:10340000012D0ED100231F499A000133A150202B1A
:10341000FAD11C4BA3641C48FFF780FC1B4B1860BF
:1034200070BD012DF5DD1A48FFF780FC0600194834
:10343000FFF77CFC023803789B007F2B05DC3221F0
:10344000154B164A1648FEF7F7FB80223100200084
:1034500000F09CFB022DDED1124B1A88B5231B0213
:103460009A4209D1104A114B12889A4204D1104A4B
:10347000104B12889A42CCD00020FEF76FFCC04659
:10348000E41C0020B93400104C330000841C0020E0
:103490005344000053460000386C0010D26C0010FA
:1034A0008A6C001054380000D838000049460000EB
:1034B0009C3800005946000007B5604601880A0A9A
:1034C0000230DF2AFAD1C9B2820804D302884088C8
:1034D0000004104300E00068014A5050039007BD0B
:1034E000E41C00200FB403BC0CBCF0B50124E407BD
:1034F000634000E0F0B50C0DCF0F661E3605891B4A
:10350000640503D3C943404200D30131640D03D0A5
:10351000661CF60A07D0E41B00207F00791C89078F
:103520008912803C24031D0DDF0F6E1E36059B1B88
:103530006D0503D3DB43524200D301336D0D03D03D
:103540006E1CF60A07D0ED1B00227F007B1C9B0738
:103550009B12803D2D032F1B661B58D4A446202EA2
:1035600046DA20371400BC401D00BD40F240334114
:103570002A4380185941CB0F05D0C943C0430022CC
:1035800064425041514162464D0D28D10D0D07D185
:1035900000281FD0241940414941013A0D0DF9D0AE
:1035A000640006D3013000D30131002C01D1400862
:1035B0004000013A0BD4941CE40A04D112051144D2
:1035C000DB071944F0BDD907204B194300E0D907A8
:1035D0000020F0BD0029DDD1002CDBD1F0BD01328F
:1035E000C6074008CD0728434908002EE1D0D9E797
:1035F0003C2E29DA203E40371400BC4000D0012484
:10360000F24014431A00BB401C43D317ACE7AC464E
:10361000202F08DA20360400B4400D00B540F840F1
:1036200039412843A5E73C2F0CDA203F40360400FF
:10363000B44000D00124F84004430800B1400C43DA
:10364000C117EAE710001900002494E70000F07F9A
:10365000F0B50C0D661E3605891BE60A6405640D7F
:1036600002D0651CED0A04D0002001210905803C30
:103670002403A4461C0D671E3F05DB1BE70A6405F7
:10368000640D02D0651CED0A04D0002201231B0545
:10369000803C24037740644497B484B296B2744368
:1036A000070C7E43150C6F4380B26843361802D373
:1036B000012000043F183004350C00197D41844678
:1036C00088B29AB250430C0C62431F0C7C438EB2FA
:1036D0007E43921902D301263604A4191604170C4E
:1036E0003618674101BC81B29AB25143040C62435F
:1036F0001B0C5C4380B25843121802D30120000413
:1037000024181004130C401863412D185E4100204A
:10371000474106BC88B293B258430C0C6343120C69
:10372000544389B251435B1802D301210904641840
:1037300019041A0C091862416D18564100204741BE
:1037400018BCF902720D1143F0026A0D1043ED022C
:103750000A0D03D16D1940414941013B124E9B1B9B
:103760007600B3420ED26D0007D3013000267141BE
:103770006646354301D1400840001B05C918E407DF
:103780002144F0BD0BDA013306D1013004D10131FF
:103790004F0D01D04908F2E7E1070020F0BD0136E6
:1037A00031050020EBE70000FF030000F0B51C0D21
:1037B000671E3F05DB1BE70A6405640D02D0661C2B
:1037C000F60A04D0002201231B05803C2403D025E7
:1037D0002D060026F6432E661E096E66CE0FF619DC
:1037E000B44649004F0D02D07E1CF60A03D00020DB
:1037F0000021403F3F033E1BB600B444013F7F051C
:10380000C91B49082E6F013676089C02950D254389
:103810007543ED137543AD1301356D10F603761B3B
:103820000CB4CC02450D2C43A2B2B3B25A43270CC0
:103830007B43350C6F43A4B26C431B1902D30124A4
:1038400024043F191C041D0CA4187D4124196D414A
:10385000009A91B2ACB26143170C7C432B0C5F43CE
:1038600092B25A43A41802D301221204BF182204B0
:10387000230C52187B41019C6C431B19520ED90139
:103880000A434401A01A81B2B2B2514303145A430D
:10389000360C734387B27743D617D21900277E417F
:1038A00036049B191704160C7F185E417316ED1829
:1038B000F301002680337541A90F06D16400690A1F
:1038C000E8055B0A184309D22FE0042294448033B0
:1038D0007541A90AA8059B0A184326D340414941CE
:1038E0002404009A019B0D005543641B4343E41AD2
:1038F00095B286B27543170C7E43030C5F4392B2B8
:103900005A43B61802D301221204BF183204330CF2
:1039100052197B4152429C41002C02D400220130BA
:1039200051414008CA071043490802B06246D70710
:103930009210084BD218084B9A4203D212058918EC
:10394000C919F0BD0020002A01DC3900F0BD0133A7
:103950001905F5E7FD030000FE070000002200B591
:10396000203200F004F8080000BD000000220B1512
:103970000AD410B5944600F031F81414013400DA7A
:103980000021CB17144C20470020002170476244CF
:10399000343A0CD40C2A07DA040091409040524289
:1039A0002032D440214310BDD843D94310BD20322A
:1039B00007D40C469440524220321141D04020435B
:1039C00010BD0800C917203203D4524220321041E2
:1039D00010BD1800190010BD8F3900100A0DCC0F52
:1039E000531E1B05C91A520503D3C943404200D3D5
:1039F0000131520D03D0531CDB0A07D0121B0020EB
:103A00006400611C89078912803A1203014BD21AA3
:103A100070470000FF030000132310B527481C78EF
:103A2000FFF784F90100012C36D1254C54222000E7
:103A300000F0ACF8234A244B12889A421CD1A722EA
:103A40009201224B12889A4216D1214B1A88214B9F
:103A50009A4211D19423204A9B0112889A420BD199
:103A60001E4B1A881E4B9A4206D11E4B1E491868DF
:103A70001E4A1523884202D01D48FEF76FF99900AF
:103A800001336250202BFAD12262E2611948FFF71C
:103A900045F9194B186010BD012CF7DD831E1B780A
:103AA0009B007F2B05DC4221144B154A1548FEF77D
:103AB000C3F88022024800F069F8E7E753460000A7
:103AC000E41D0020EE290000C40F0000C20D00001C
:103AD000962B0000C0B50000182B0000CC2A000077
:103AE00010B50000FC2C000051ED8764093B00106C
:103AF000C36B00104C330000841C0020E66C0010E7
:103B00005E6D0010186D001007B5604601880A0A46
:103B10000230DF2AFAD1C9B2820804D30288408871
:103B20000004104300E00068014A5050039007BDB4
:103B3000E41D002010B5002803D0044B4018984223
:103B400002D90348FEF70AF910BDC0460000042060
:103B5000716D001070B5050001F018FD040029001A
:103B6000FFF7E8FF200070BD10B501F019FD10BD92
:103B700001480421014B1847301200203D2D001050
:103B8000014B1B681847000030120020014B5B6896
:103B9000184700003012002010B5FFF7DBFF10BD02
:103BA00010B5FFF7E1FF10BD10B5FFF7DDFF10BD49
:103BB000030010B508001B681100984710BD0000F5
:103BC000F8B5437D05000C001600002B30D10368CA
:103BD000110020009847F8BD002927D0631E5B5CC8
:103BE0000D3B5A425341DBB2625C4F1C0A2A0CD196
:103BF000002B0AD1814203DD091A2B68201898474F
:103C00000E4802212B689847380039008E42E3DCC9
:103C1000864210DD311A2B6820189847A419013C00
:103C200023780D3B5A4253412B75D4E72B7DDBE7BC
:103C300000210800EAE7002ECDDDEFE7A96E0010B5
:103C400070B505000A4B1C68002C01D12C6070BDBA
:103C50002368002B0AD0074B1B68002B01D09C4225
:103C600004D12900200004C9FFF7AAFF2469EBE76B
:103C7000681C00206C1C00200B6870B505000C004F
:103C8000802B02D10800FFF7DBFF21684B1C23606B
:103C90006418257170BD00003F2110B5024B034A26
:103CA0000348FDF7C9FFC04638650010946E001048
:103CB0005365001010B5FDF7C1FB02000B1E01DAC1
:103CC000FFF7EAFF0021064812184B41002B02DAE9
:103CD0000122044B5242044802F042FA10BDC04691
:103CE00040420F00FFFFFF7F901A002010B50248EE
:103CF00002F0DEF910BDC046901A0020F0B585B084
:103D000006000C001D000092FFF7D4FF0190631C19
:103D100003D1300002F04EF80400154F002D00D101
:103D2000144F154B1D68002D09D1019B002B01D0AC
:103D3000FFF7DCFF601E8441E0B205B0F0BD2B68E8
:103D4000002B13D00D4B1B68002B01D0AB420DD1C3
:103D5000220031002800B847009B002B06D002ABA0
:103D6000D91D0A23012228000B70B8472D69DAE714
:103D7000B13B0010C13B0010681C00206C1C0020EF
:103D8000054B10B51C68002C00D110BD6368002BDA
:103D900000D098472469F6E7681C002070B505003C
:103DA00002F008F804000100002301222800FFF7B8
:103DB000A5FFFFF7E5FF200070BD000070B5A2B0C1
:103DC00004000E00FFF776FF002322000193050098
:103DD00033000A4801A9FEF789FF019B0400002B6C
:103DE00002D001A8FFF72CFFFFF7CAFF002D01D07A
:103DF000FFF77CFF200022B070BDC046793C001068
:103E00000FB407B504A901C90191FFF7D7FF03B0AB
:103E100008BC04B01847F0B5002487B00592012211
:103E20000600250003930CAB1B78009401930368F4
:103E30000492DC665960DA66039B9C4204DB200036
:103E4000019B337107B0F0BD0020039B013B02933F
:103E5000844200D13079029B00218002A34202D12A
:103E60000499019B59402F000025059B32681B5D7A
:103E7000490203430B4313610D9B002B04D00E98A2
:103E8000984707000543EDB2002F1BD1102133687E
:103E90005A6B0A42F0D01A1DD26F0092002A16D037
:103EA0005B6D049D0D9B002B05D00E989847054334
:103EB000EDB2002822D18021336889005A6B0A4272
:103EC000F0D01B6E002D17D13D000134B4E7002D5A
:103ED000E8D1029BA342F8D1019B002BF5D11D0034
:103EE000E0E7009B002B04D0DB0702D4009B1B07FC
:103EF000A5D402246442A2E7002FF2D00124F9E7FE
:103F0000F0B585B0039005200C00FDF7D5FD050048
:103F1000600821004019FEF74BFF032747430600C6
:103F200005213800FEF744FF331A01900320029365
:103F3000214B68439C420FD82049FEF739FF431CB0
:103F40000093019B009A023B934207D25D211C4BD8
:103F50001C4A1D48FDF770FE1C49EEE7039B01203B
:103F60001C680023E3662268043353400622134092
:103F70008022520122431360029BE361019B236272
:103F80004F2F03D950213800FEF712FF2300A03332
:103F90001860E06F009B2200434098B280237C327F
:103FA0005B0113431860012331002800E366FEF72C
:103FB000FFFE05B0F0BDC0463F420F00809698005E
:103FC000AB6E0010066F0010C96E001040787D01C6
:103FD0000E4A082370B5904200D0DB180C4A0D4CF5
:103FE00013600D4A13601D00A26895432A1EFAD182
:103FF00066240368FF3405710332DD661C60DD63EF
:104000009D6388331A60FFF77BFF70BD401200206C
:1040100000E0004000C0004000F0004030B585B036
:1040200008AC25780024009502940194FFF7F3FE74
:1040300005B030BD0123026810B51A4205D142789F
:10404000002A04D14370012010BD0020FCE70420A9
:1040500000F01AFB040000F029F82000014A024990
:1040600001F002F875400010186F00100123036082
:104070007047C04610B50400034B0833036000F0DE
:1040800017FC200010BDC046486F001010B504009A
:10409000054B0833036000F00BFC20000421FFF700
:1040A00083FD200010BDC046486F0010014B08334F
:1040B00003607047486F001010B50400034B0833CD
:1040C000036000F021FA200010BDC046906F001080
:1040D00010B50400054B0833036000F015FA20000A
:1040E0000C21FFF761FD200010BDC046906F00104D
:1040F000F0B583B01E00089B05000F00140093422A
:104100000AD0A868089A036800921D6A220033004A
:104110003900A84703B0F0BD310000F069F800286D
:10412000EFD00620F6E7C046F0B5C64600B50D0054
:1041300084B01900060090461F0000F059F8041ED4
:1041400018D10A9B0C9A934231D00D9AB06829007D
:10415000036803920C9A02920B9A01920A9A0092B7
:10416000DC6942463B00A0470400200004B004BCC8
:104170009046F0BD0D9B0A9A1A6042461A71002DB6
:104180000EDB0A9B00249C460C9B65445D1B694228
:104190004D4105236D421D400D9B01359D71E4E7A6
:1041A0000024AB1CE1D101230D9A9371DDE73000AF
:1041B0000B9900F01DF80028C7D042460D9B5A719C
:1041C000D3E7C046F8B507000C0015001E0000F04C
:1041D000D7F9002806D1B8682A00036821009F6932
:1041E0003300B847F8BDC0467047C046002070474E
:1041F00010B5814211D0406803782A2B0BD0496852
:104200000B782A3B5A425341C91801F08FFD4342B3
:104210005841C0B210BD0020FCE70120FAE7C046BB
:10422000042010B500F030FA024B034A0349036042
:1042300000F01AFF80700010854400105C700010C0
:1042400070B50500082000F01FFA2900040000F0F6
:10425000BDFF2000044A054900F006FF200000F0E1
:1042600029FA00F04FFAC04611510010E071001019
:1042700070B50500082000F007FA2900040000F0DE
:10428000B7FF2000044A054900F0EEFE200000F0D0
:1042900011FA00F037FAC04665510010EC710010B9
:1042A0000FB42023F0B583B000AFFC1820CC280059
:1042B00001F080FD80239B00C118104B2A009C4612
:1042C0006B466044C008C0001B1A9D466E46230022
:1042D00030007C6000F07EF8082000F0D5F9310055
:1042E000040000F08FFF2000054A064900F0BCFEE4
:1042F000200000F0DFF900F005FAC04607020000D8
:1043000099510010F8710010F0B505000C009DB037
:1043100000AF641B69220F49381DFFF737FC2300EB
:104320006A467033DB08DB00D31A9D466E4668226E
:10433000391D3000FFF72AFC3000220029006830C8
:10434000FFF724FC00233419683430002370FFF792
:1043500077FFC046D46F0010F0B557464546DE469D
:104360004E46E0B583B000AF84B0EA460C23534418
:1043700099461D00164B834614009846796020002C
:104380000A21FEF715FD43465B5C013D20000A2132
:104390002B70FEF70DFD26000400092EEFD84B46CA
:1043A0005D1B7B689D420FD85346591B2A00584617
:1043B0000C31FFF7EBFB2800BD4603B03CBC904638
:1043C0009946A246AB46F0BD01256D42F3E7C046D3
:1043D00040700010F0B5C646804600B515000139A2
:1043E000127841440F000400002A45D088420AD2C6
:1043F000252A0CD02A782270013501342A78002A27
:104400001FD0BC42F4D321004046FFF77DFF6A78FD
:10441000732A1DD07A2A03D0252AEBD10135EAE789
:10442000AA78752AE6D11E00200004CE391BFFF7BA
:1044300093FF0028E7DDEA78033533002418002ACB
:10444000DFD14346E01A0023237004BC9046F0BD40
:1044500002CB0E78002E0DD0A742D4D9220001E065
:104460009742D0D01000013106700E78013214004E
:10447000002EF5D10235C1E70020E4E7004870477F
:104480004C70001010B50400034B0833036000F0BB
:104490000FFA200010BDC0467870001010B504005F
:1044A000054B0833036000F003FA20000421FFF7F6
:1044B0007BFB200010BDC0467870001030B585B081
:1044C000002314006A4613711022009303930368BB
:1044D00002929D6922686B46A8476B461A790623AB
:1044E00000201340062B02D1009B0130236005B051
:1044F00030BDC046009B981A421E904104234042A2
:10450000984306307047C04610B50400034B08338B
:104510000360FFF769FE200010BDC046BC700010AC
:1045200010B50400054B08330360FFF75DFE200063
:104530000821FFF739FB200010BDC046BC700010F9
:1045400070B516001D00069A049B040093420ED01D
:1045500029002000FFF74CFE002806D0079B049A94
:104560001E711A600123079A9371002070BD05998E
:10457000FFF73EFE0028EBD0079B5E71F5E7C046D3
:1045800070B515001C00FFF733FE002804D0082387
:10459000E360023B2560237170BDC046F8B505009D
:1045A0000C0017001E00FFF723FE002807D1032E82
:1045B00005D823683A00290020005B699847F8BDB8
:1045C00070B51C4C08386368002B27D00668851925
:1045D000AB4223D81DD05A680434002A06D10EE01D
:1045E00051681C1D00291FD013000A009542F7D303
:1045F00004D12A6894466A6866445A6023681A6837
:10460000991888420DD05B68066043602368586043
:1046100006E01A685B689446664406604360606022
:1046200070BD96191E60FBE75B681A68991888428E
:10463000E9D1F6E7101C0020020010B5083208305E
:1046400000D3082207230F49073248689A430028FD
:1046500013D0043103E0011D406800280DD0036829
:104660009A42F8D89B1A072B08D98418406823600F
:104670006060086802600C60083010BD4368083054
:104680000B60FAE7101C002070B580300500FFF7C2
:1046900061FA041E07D0802200212000FFF770FA83
:1046A0002000803070BD2800FFF7C6FF041EF2D145
:1046B00000F07AFC074A8038936810B5984203D915
:1046C000D2689B18984202D3FFF74EFA10BDFFF74D
:1046D00077FFFBE7101C002070B59E25084C2D01CC
:1046E0002800E560FFF736FAA060002804D0002318
:1046F00060600560436070BDE0606060FBE7C046DD
:10470000101C00201EB400F09BF81EBC01F008FD38
:10471000F0B5C64600B51E0003780C0082B0472BEA
:104720001ED000232C4D01932B6828009B689847CE
:10473000012700280FD1236829001B692000984613
:1047400001AA0123C047002830D10027380002B059
:1047500004BC9046F0BD019B01371B680193EAE75A
:1047600043784E2BDDD18378552BDAD1C378432B98
:10477000D7D10379462B23D00379432BD1D1437969
:104780002B2BCED183792B2BCBD1C379012BC8D83E
:104790000FD00300203B58301D6801902B68280083
:1047A0009B68984701270028C5D0D4E7019B336058
:1047B000CCE7203800680300783B1D680190EDE7E6
:1047C00043794F2BD8D18379522BD5D1C379002B84
:1047D000D2D1024D0193A7E7147100100C710010A3
:1047E00010B5040000F07CF823002278203B472A13
:1047F00005D08268002A20D18360012010BD627834
:104800004E2AF6D1A278552AF3D1E278432AF0D184
:104810002279432AEDD162792B2AEAD1A2792B2A77
:10482000E7D1E279012AE4D8DA690132DA61012AB2
:10483000E3D182689A618360DFE700F0B5FBC04690
:1048400010B500F04DF88368002B2ED020229A5C22
:10485000472A04D0002282602033180010BD263A77
:104860009A5C4E2AF6D12C3A9A5C552AF2D1323A09
:104870009A5C432AEED11F3A9A5C432AEAD11E3A47
:104880009A5C2B2AE6D1053A9A5C2B2AE2D1043AAB
:104890009A5C012ADED8DA69013ADA61002ADBD1B2
:1048A0009A69826000229A61D6E700F07DFBC046DB
:1048B0007047C0467047C04600487047E870001017
:1048C00000487047F870001010B504000421FFF78D
:1048D0006BF9200010BDC04600487047041C002042
:1048E00000487047041C0020F8B5DE464546574690
:1048F0004E468B46E0B50500502825D00F202840B5
:104900000C2800D976E03C4C80002058874650782F
:10491000147800022043947824042043D478240699
:104920000443101D002C08D070262E40102E00D1FC
:1049300093466DB25C44002D0CDB1C603CBC904681
:104940009946A246AB46F8BD032103328A431000C4
:1049500010C8F2E72468F0E750781478000220438A
:10496000947824042043D4782406044310000830AB
:10497000D8E75478107824020443901CD2E7547886
:1049800010782402044324042414901CCAE77F21D5
:10499000904600240027894646463178701C4E46D2
:1049A0000E40BE4034434EB280460737002EF3DB44
:1049B0001F2FB7D84906B5D50126BE4076423443ED
:1049C000B2E7002188467F311700002489463E0067
:1049D000317801378A464946564631404646B1400D
:1049E0000C4307218C4651464EB23800E044002E5D
:1049F000EDDB97E700F0C2FDAC710010020010B5CE
:104A00000800FF2A15D070231340302B17D004D88C
:104A1000202B07D101F044FB03E0402B0BD101F028
:104A20008FFB10BD202B02D86023134201D000F071
:104A3000A5FD0020F5E70020502BF2D0F7E701F0AC
:104A40005FFBEEE7F8B505000E0014000020002D16
:104A500002D0280001F074FB2060771C3678FF2E0E
:104A600029D160603B78781C2375FF2B33D010234D
:104A7000002500217F2623753200037801301A407B
:104A80008A405BB215430731002BF5DB4519E56021
:104A9000002500227F2603780130637531000378FA
:104AA0000130194091405BB20D430732002BF5DB1A
:104AB00045192561F8BD29003000FFF79FFF3A0036
:104AC0000100231D3000FFF70FFF07003B78781C23
:104AD0002375FF2BCBD10023E360D9E7F0B5DE4689
:104AE000454657464E460023E0B593B0089303333E
:104AF0008B4690460340012B00D19FE0022B0FD143
:104B00004146584601F0ECFA0924002800D1082457
:104B1000200013B03CBC90469946A246AB46F0BD7F
:104B2000002B00D027E20307EAD401230CAD029347
:104B30005B460C9300230C2200214046009501F0B7
:104B4000C7FA404601F02CFB03900028D8D02A0079
:104B500003994046FFF776FF41460600287DFFF7A0
:104B60004DFF0BABA8600F2200939A460021002353
:104B7000404601F0FDFA01220B9B9343013B99460D
:104B80002B699E426BD27F276C7D00212000FFF7AE
:104B900035FF3200010009AB2000FFF7A5FE6C7D58
:104BA000060000212000FFF729FF320001000AABB8
:104BB0002000FFF799FE6C7D060000212000FFF722
:104BC0001DFF5346010032002000FFF78DFE002438
:104BD000002103003A001B7801301A408A405BB282
:104BE000060014430731002BF3DB099A2B68944627
:104BF00063444B4519D9029BDB072AD500230024C7
:104C0000049353460D220093002100234046089D43
:104C100001F0AEFA5B460B9A9C621A62039A062474
:104C2000DA62049A5D621A6372E70A9A94466344F0
:104C30004B4574D82B698342A6D8DCE708231A00B9
:104C40000240034214D002231A4302920C910CAD8D
:104C500070E70823029A134207D000F0A5F90299E1
:104C60000A42CBD108230B42F7D1584600F074FB1F
:104C70000CAD0C6A00230D2200214046009501F086
:104C800077FA0C9B9C4202D00223029350E75B46CA
:104C90000C220C93002100234046009501F018FAE5
:104CA0005B461B6B0493002BDFD05B469C6ADB6A80
:104CB00003930BAB9A460326002C4DDB5B460B930C
:104CC00053460022002100934046002301F000FAE1
:104CD0005346012200210093404600230B9401F02B
:104CE000F7F953460F22002100934046002301F0BC
:104CF0003FFA01230B9A00211340049A40461343C4
:104D00000B9353460F220093002301F0E1F907248F
:104D1000022E00D0FCE65846FFF762FDF8E60B9B3A
:104D2000002B00D1ECE66A68944663440493002C9F
:104D300031D1002B00D1E3E6029BDB0700D5DFE693
:104D40000226BBE7079B5446AB469846B2464D4603
:104D5000029BDB0700D554E72A0003994046FFF782
:104D600071FE4146287DFFF749FEE343E9689B0059
:104D7000A860C9180B68002B05D0002301339A00E6
:104D80008A58002AFAD15A46936204230326D06235
:104D90001363516392E72B69661E9C46049B66442D
:104DA000002B00D1ACE6002E00D1CEE0029A082301
:104DB000110019400691134200D1CDE05A463F330D
:104DC00013700733537007339370123BD370033360
:104DD000137109335371033393710023D37100238B
:104DE000424605937F273300A946079200240021FD
:104DF0001A0010783A0002408A400133144342B24C
:104E00001D000731002AF3DB1F2906D84022024289
:104E100003D03F3A8A4052421443002600213A0010
:104E20001878013302408A40164342B20731002A03
:104E3000F5DB1F2906D84023034203D03F3B8B40BC
:104E40005B421E43002C10D012DC5B46002B02D0CC
:104E5000069B002B47D0E3430F9A9B009B58002BE7
:104E60002BD0002E6BD0AB19C0E701230593F8E7D8
:104E70004B46187DFF2860D007230340022B59D0F2
:104E80002CD9032B2CD0042B75D1E20052424B4677
:104E9000DB6849469C46896853466244FFF724FD17
:104EA0000B99002909D05B46002BDAD00022584626
:104EB00008ABFFF72DFC0028D3D0079B4D46984642
:104EC000029BDB0700D59CE6069B002B00D1F2E697
:104ED0000326002C00DBF1E600F072F8002B4AD12B
:104EE000A2005242D3E7089B0F9A0B93E3439046EC
:104EF0009B00984443461968002938D05B465246C7
:104F0000AB46A2461D004446B046160004E0616868
:104F10000434002900D115E733000022280061186D
:104F2000FFF7F6FB0028F2D02B00B2465D4646465E
:104F30009B4696E762005242A9E70022A7E7079B3B
:104F40009846059B002B00D1DAE5029BDB0700D5D4
:104F5000D6E500240226B1E65B46DA795833012A09
:104F600001D008933BE7783B1B68089337E7079B22
:104F70004D469846ECE600F001FB00F07DFA6CE649
:104F800070B5804700F0FAFA00F076FA00F0F6FA11
:104F90000D00040000F0AAFA6B1C02D1200000F002
:104FA000EBF9FFF7AFFBC046024B10B51868FFF7EF
:104FB000E7FFC0464C12002010B58047FFF7F4FF12
:104FC000024B10B51868FFF7F7FFC04648120020E3
:104FD000014B18687047C0464C120020014B1868FE
:104FE0007047C0464812002010B5012812D80B00A7
:104FF000283B1A68501E1860012A00D010BDDB68DB
:1050000058310C00002B01D0080098472000FFF712
:1050100051FBF3E728394869FFF7B2FF70B5050087
:105020000026803DEA602E60A9600400FFF7D6FFED
:105030002861FFF7CDFF23004722583B68611A70B3
:1050400007325A7007329A7022004323553A137080
:105050005370183B9370D370024B513C280026705C
:105060002B6370BDE94F001070B504000D001600F1
:10507000FFF736FC4368320001332900436020000B
:10508000FFF7CCFF012303602830040001F080F813
:10509000200000F0F1F9FFF787FFC04610B5FFF7D9
:1050A0001FFC4368046801334360002C0CD02023AC
:1050B000E35C472B0AD0002303602034200001F07A
:1050C0005FF8200000F0D8F9FFF76EFF263BE35CA5
:1050D0004E2BF0D12C3BE35C552BECD1323BE35C07
:1050E000432BE8D11F3BE35C432BE4D11E3BE35C45
:1050F0002B2BE0D1053BE35C2B2BDCD1043BE35CA9
:10510000012BD8D863695B426361D6E7406870477A
:105110000D4B10B5083303604368040018000B4AB8
:105120000C3882B0904205D12000FFF7C1FB20006F
:1051300002B010BD043B1A68511E1960002AF3DC4E
:1051400001A900F0BFF8EFE73C720010201C00201E
:1051500010B50400FFF7DCFF2000FEF721FD200062
:1051600010BDC04610B50400034B08330360FFF7C1
:10517000CFFF200010BDC0465072001010B50400D3
:10518000044B08330360FFF7C3FF2000FEF708FD60
:10519000200010BD5072001010B50400034B0833FE
:1051A0000360FFF7B5FF200010BDC0466472001019
:1051B00010B50400044B08330360FFF7A9FF20007B
:1051C000FEF7EEFC200010BD6472001010B5074B16
:1051D00082B0040001AA08C000F08AF8200002B0E2
:1051E00010BD2000FFF764FBFFF78CFA447200103B
:1051F00010B50400FFF7EAFF014B2000236010BD4B
:105200005872001010B50400FFF7E0FF014B2000BA
:10521000236010BD6C720010164B10B5040098424C
:1052200025D8884215D94B00984200D21C00230093
:10523000200080221D330D305201934211D98C423F
:105240000FD994461B051B0D6444E41A094B9C427C
:105250000BD820000D30FEF79FFC002344608360D4
:1052600010BD0028F7DAFEF7DBFF1C00F1E702486B
:10527000FEF7FEFFFCFFFF3F78720010F8B50C1A36
:10528000060000212000FFF7C7FF070005000C37CC
:10529000012C09D0220031003800FEF777FC084BC2
:1052A0009D4206D13800F8BD33780373044B9D420C
:1052B000F8D000232C602C19AB602373F2E7C046B2
:1052C000201C002010B5FEF76BFC10BD10B5884205
:1052D00004D0002804D0FFF7D1FF10BD0248FCE73E
:1052E0000248FEF7ADFFC0462C1C00209072001053
:1052F00070B505000C00160000290BD0080000F066
:1053000059FD2118320000232000FFF7DFFF28603D
:10531000280070BD01214942F4E7C046027803002D
:105320000020472A00D070475A784E2AFBD19A783D
:10533000552AF8D1DA78432AF5D11A79432AF2D1DD
:105340005A792B2AEFD19A792B2AECD1DB792A3A98
:105350009A424041C0B2E6E710B5041E06D000F004
:105360008BF82000FFF7DAFF002801D1FFF71CFEC1
:10537000203CE068FFF704FEF0B5DE464E46574697
:105380004546E0B585B00600FFF7C8FF041E0BD008
:105390003300203B9A68DC68B36A91469A46002342
:1053A000376B9846756B05E00123814698460500EA
:1053B00007008246300000F05FF84346002B01D022
:1053C000FFF7FEFD4846FFF7F7FD00F055F84346AE
:1053D000002B01D0FFF7E8FDFFF77EFA27230668D0
:1053E000F25C33007833012A00D13368BF0802939E
:1053F000BB000193002399462036CA4520DD2F6863
:10540000002F00D07F1900223900300002ABFFF7D7
:105410007FF9002801D0FFF741FE3B6803901B692C
:1054200038009B461149012303AAD847002800D021
:10543000804601239C46019BE1449C466544DCE791
:105440004346002B08D00420FFF71EF9084B094AF9
:1054500006490360FFF708FE2000FFF791FD00F00A
:1054600045F800F043F8FFF74DF9C0461C710010F5
:10547000A0710010B548001070B50400FFF730FAB5
:10548000220023780568203A472B04D0002D2BD129
:105490000260280070BD63784E2BF7D1A378552B9E
:1054A000F4D1E378432BF1D12379432BEED1637907
:1054B0002B2BEBD1A3792B2BE8D1E379012BE5D86A
:1054C0005369002B0DDB013353614368013B43609B
:1054D000954201D0156102602000656A00F028FE47
:1054E000D7E70121CB1AEFE7FFF75EFD10B5FFF715
:1054F000F3F90368002B09D020229A5C472A06D0D2
:10550000002220330260180000F0F2FD10BD263AA0
:105510009A5C4E2AF4D12C3A9A5C552AF0D1323A50
:105520009A5C432AECD11F3A9A5C432AE8D11E3A8E
:105530009A5C2B2AE4D1053A9A5C2B2AE0D1043AF2
:105540009A5C012ADCD85A69002A08DB511E012A1C
:105550000CD04A1C01D05961D8E7FFF725FD511C3A
:105560000132F8D11A6902605961CFE71A69203314
:105570000260180000F0BCFDC8E7C04610B5062068
:1055800000F08CFB0120FCF735FBC04610B5034B47
:105590000100186800F00EF810BDC046501200203F
:1055A00010B5034B0100186800F088FC10BDC04620
:1055B00050120020F0B557464546DE464E46E0B54F
:1055C0000D000B3583B00700162D22D8102900D905
:1055D000BBE000F0B5FA102518230220D14EF318D5
:1055E0001A005C68083A944200D1BEE00323626866
:1055F0009A431300E268A168CA6091600122E3182F
:10560000596838000A435A6000F09CFA20000830BC
:105610009EE007239D4300D597E0A94200D994E07E
:1056200000F08EFAF823FF339D4200D8ADE1680AFE
:1056300000D194E0042800D980E138239846A809D5
:1056400080443930C100B74E71180839CC68A14286
:1056500018D0032362689A431300521B0F2A00DDFF
:1056600036E1002AC6DA03239C4608E062466368F6
:1056700093435A1B0F2A00DD2AE1002ABADAE468B4
:10568000A142F3D1320034690832944200D177E06C
:1056900003236168994389460B00491B0F2900DDEC
:1056A00077E1726132610029A8DA9F4A914500D9F9
:1056B00010E1DA08012391108B40D2007168921931
:1056C0000B4391687360E260A1609460CC6001213B
:1056D00082109140994259D80B4205D10322904340
:1056E000490004300B42FBD003239846C30099467F
:1056F000B144CC4682466346DC68A44507D129E123
:10570000002A00DB32E1E468A44500D122E14246F0
:10571000636893435A1B0F2AF2DD0120804661190A
:1057200005436560A068E5680836C560A860404626
:10573000F160B16010434860CE608E603800E25086
:1057400000F000FA2000083002E00C2300203B604B
:1057500003B03CBC90469946A246AB46F0BD8021C2
:105760003F238900402098466DE7DC680230A34261
:1057700000D03BE7320034690832944200D087E71A
:1057800001217368821091409942A5D90323B4681E
:1057900062689A439046AA4203D3531B0F2B00DD45
:1057A00088E023004344614A0193614B93469A4643
:1057B00012681B68EB18013200D139E15D4A94464A
:1057C00063441B0B1B0300930099380000F0BCF9E5
:1057D00003008146013300D1F6E0019B834200D9EA
:1057E000F0E051464968009B8C46514663444B604B
:1057F00001991A00494500D14FE15B461B6801330E
:1058000000D154E14B4601995B1A9A1853465A60ED
:1058100007234A461A40019200D113E108214B4662
:1058200089469B1A99440099434B49449B1A5B1A39
:105830001B051B0D0091380019009B4600F084F9F0
:10584000431C00D14FE14B46C01A03005B44009358
:10585000534652465B6801215B4453604A464846C2
:10586000B260009A0A434260B44200D123E142464A
:105870000F2A00D821E107200C3A824360680140DA
:10588000052011436160A118486088600F2A00D983
:1058900034E14A464C4652685146C96A994201D29F
:1058A0005146CB625146096B994200D38EE0514676
:1058B0000B638BE0012229001343114365196160DA
:1058C0003800B5606B6000F03DF9200008303FE71C
:1058D0004046D7E65A0A042A6ED9142A00D9C1E0F4
:1058E00011005C325B31D20008235B429C46B21847
:1058F000944463469A6803239846944500D19AE0FD
:10590000434651689943494502D992689445F7D175
:10591000D3689C4673686146A260E1608C60D46085
:10592000D5E6C04688160020FF0100008016002042
:10593000CC1B00200F10000008100000142852D9C2
:10594000542800D996E06E239846280B80446F3087
:10595000C10078E608239B46073BDC449B46DA44BB
:1059600043465246134200D0C5E64CE00122E318FC
:10597000596838000A435A60E368A268D3609A60A5
:1059800000F0E0F820000830E2E62B00E8080833D9
:1059900024E6012360191D43656070613061C260B7
:1059A00082601A004B460A4342603800E15000F022
:1059B000C9F820000830CBE69A0911003932383195
:1059C000D20091E7B44260D0B468626803239A437E
:1059D000531BAA4202D30F2B00DD6BE7380000F007
:1059E000B1F80020B4E65B23984680445C30C100E7
:1059F00029E608235B429C46E1444B469B680138FC
:105A00004B4500D097E043460342F2D173688B4385
:105A100073604900994200D9B8E6002904D1B5E67F
:105A2000042294464900E2440B42F9D050465DE618
:105A300010330093C8E68910023B8B4071680B431A
:105A4000736068E7009B38004B441B055B421B0DED
:105A500019009B4600F078F8431C00D0F3E60023C1
:105A60009B46F5E6542A2AD81A0B11006F326E3184
:105A7000D20039E7AA235B0098422AD8DD3B98463A
:105A8000E80B80447830C100DDE553465B68009A3E
:105A90009C46534662445A60AFE6090500D0ACE626
:105AA000009AB468424401310A436260F4E65B46FE
:105AB0004A461A60ACE64C46EEE641608EE7AA2103
:105AC00049008A4224D8DA0B110078327731D200AB
:105AD0000AE71A4B984224D87C239846A80C8044A5
